{
  "transactions": [
    {
      "hash": "0x7fbf40d3452f5cbb212608ed64d56ffd45c1815ba2215e6c67a3bff5463e1171",
      "transactionType": "CALL",
      "contractName": null,
      "contractAddress": "0x5291b202a17bac5bf9ed9d5fd32da5d333ca42c4",
      "function": "setChairperson(address)",
      "arguments": [
        "0xCa9cDD6714033a4D08e4BE479c1077e5B35f3a4B"
      ],
      "transaction": {
        "from": "0xca9cdd6714033a4d08e4be479c1077e5b35f3a4b",
        "to": "0x5291b202a17bac5bf9ed9d5fd32da5d333ca42c4",
        "gas": "0x16b87",
        "value": "0x0",
        "input": "0xc4868f88000000000000000000000000ca9cdd6714033a4d08e4be479c1077e5b35f3a4b",
        "nonce": "0xd",
        "chainId": "0x14a34"
      },
      "additionalContracts": [],
      "isFixedGasLimit": false
    },
    {
      "hash": "0xd065922c195f2bb54742f281df67f78555f3340e8757dfab75d2bac887925dc6",
      "transactionType": "CALL",
      "contractName": null,
      "contractAddress": "0x5291b202a17bac5bf9ed9d5fd32da5d333ca42c4",
      "function": "addBoardMember(address)",
      "arguments": [
        "0x0000000000000000000000000000000000001111"
      ],
      "transaction": {
        "from": "0xca9cdd6714033a4d08e4be479c1077e5b35f3a4b",
        "to": "0x5291b202a17bac5bf9ed9d5fd32da5d333ca42c4",
        "gas": "0x10c79",
        "value": "0x0",
        "input": "0x1eac03ae0000000000000000000000000000000000000000000000000000000000001111",
        "nonce": "0xe",
        "chainId": "0x14a34"
      },
      "additionalContracts": [],
      "isFixedGasLimit": false
    },
    {
      "hash": "0xed7846ef3c3add7bb45447d06daae7cfd03a1e189d450aedd389c3101a75ac9c",
      "transactionType": "CALL",
      "contractName": null,
      "contractAddress": "0x5291b202a17bac5bf9ed9d5fd32da5d333ca42c4",
      "function": "addBoardMember(address)",
      "arguments": [
        "0x0000000000000000000000000000000000002222"
      ],
      "transaction": {
        "from": "0xca9cdd6714033a4d08e4be479c1077e5b35f3a4b",
        "to": "0x5291b202a17bac5bf9ed9d5fd32da5d333ca42c4",
        "gas": "0x10c79",
        "value": "0x0",
        "input": "0x1eac03ae0000000000000000000000000000000000000000000000000000000000002222",
        "nonce": "0xf",
        "chainId": "0x14a34"
      },
      "additionalContracts": [],
      "isFixedGasLimit": false
    },
    {
      "hash": "0x80d99617607ad56f3f2eb3f0a937e142ac2bd490333fd2ee242f6a90e8e1fd77",
      "transactionType": "CALL",
      "contractName": null,
      "contractAddress": "0x5291b202a17bac5bf9ed9d5fd32da5d333ca42c4",
      "function": "addBoardMember(address)",
      "arguments": [
        "0x0000000000000000000000000000000000003333"
      ],
      "transaction": {
        "from": "0xca9cdd6714033a4d08e4be479c1077e5b35f3a4b",
        "to": "0x5291b202a17bac5bf9ed9d5fd32da5d333ca42c4",
        "gas": "0x10c79",
        "value": "0x0",
        "input": "0x1eac03ae0000000000000000000000000000000000000000000000000000000000003333",
        "nonce": "0x10",
        "chainId": "0x14a34"
      },
      "additionalContracts": [],
      "isFixedGasLimit": false
    }
  ],
  "receipts": [
    {
      "status": "0x1",
      "cumulativeGasUsed": "0x220af4",
      "logs": [
        {
          "address": "0x5291b202a17bac5bf9ed9d5fd32da5d333ca42c4",
          "topics": [
            "0xef3b4440f0fa9f21178057b45e2d668308ca351158e94345bf17a32129102f3f"
          ],
          "data": "0x000000000000000000000000ca9cdd6714033a4d08e4be479c1077e5b35f3a4b",
          "blockHash": "0x0000000000000000000000000000000000000000000000000000000000000000",
          "blockNumber": "0x239ad11",
          "blockTimestamp": "0x6986b902",
          "transactionHash": "0x7fbf40d3452f5cbb212608ed64d56ffd45c1815ba2215e6c67a3bff5463e1171",
          "transactionIndex": "0x8",
          "logIndex": "0x52",
          "removed": false
        }
      ],
      "logsBloom": "0x00002000000000000000000000000000000000000000000000000000000000000000000000000000000000000000000000000000000000000000000000800000002000000000000000000000000000000000000000000000000000000000000000000000000000000000000000000000000000000000000000000000000000000000000000000000000000000000000000000000000000000000000000000000000000000040000000000000000000000000000000000400000000000000000000000000000000000000000000000000000000000000000000000000000000000000400000000000000000000000000000000000000000000000000000000000",
      "type": "0x2",
      "transactionHash": "0x7fbf40d3452f5cbb212608ed64d56ffd45c1815ba2215e6c67a3bff5463e1171",
      "transactionIndex": "0x8",
      "blockHash": "0x0000000000000000000000000000000000000000000000000000000000000000",
      "blockNumber": "0x239ad11",
      "gasUsed": "0x10730",
      "effectiveGasPrice": "0x124f80",
      "blobGasUsed": "0x79e0",
      "from": "0xca9cdd6714033a4d08e4be479c1077e5b35f3a4b",
      "to": "0x5291b202a17bac5bf9ed9d5fd32da5d333ca42c4",
      "contractAddress": null,
      "daFootprintGasScalar": "0x138",
      "l1BaseFeeScalar": "0x44d",
      "l1BlobBaseFee": "0x3304f4c",
      "l1BlobBaseFeeScalar": "0xa118b",
      "l1Fee": "0x33e7dd499",
      "l1GasPrice": "0x40157e53",
      "l1GasUsed": "0x640"
    },
    {
      "status": "0x1",
      "cumulativeGasUsed": "0x22c287",
      "logs": [
        {
          "address": "0x5291b202a17bac5bf9ed9d5fd32da5d333ca42c4",
          "topics": [
            "0x956f4b06f20eda3aa4f6be9e72e8fc77beb3f95f4f2a95a796b2af742583d743"
          ],
          "data": "0x0000000000000000000000000000000000000000000000000000000000001111",
          "blockHash": "0x0000000000000000000000000000000000000000000000000000000000000000",
          "blockNumber": "0x239ad11",
          "blockTimestamp": "0x6986b902",
          "transactionHash": "0xd065922c195f2bb54742f281df67f78555f3340e8757dfab75d2bac887925dc6",
          "transactionIndex": "0x9",
          "logIndex": "0x53",
          "removed": false
        }
      ],
      "logsBloom": "0x00002000000000000000000000000000000000000000000000000000000000000000000000000000000000000000000000000000000000000000000000000000000000000000200000000000000000000000000000000000000000000000000000000000000000000000000000000000000000000000000000000000000000020000000000000000000000000000000000000000000000000000000000004000000000000040000000000000000000000000000000000000000000000000000000000000000000000000000000000000000000000000000000000000000000000000400000000000000000000000000000000000000000000000000000000000",
      "type": "0x2",
      "transactionHash": "0xd065922c195f2bb54742f281df67f78555f3340e8757dfab75d2bac887925dc6",
      "transactionIndex": "0x9",
      "blockHash": "0x0000000000000000000000000000000000000000000000000000000000000000",
      "blockNumber": "0x239ad11",
      "gasUsed": "0xb793",
      "effectiveGasPrice": "0x124f80",
      "blobGasUsed": "0x79e0",
      "from": "0xca9cdd6714033a4d08e4be479c1077e5b35f3a4b",
      "to": "0x5291b202a17bac5bf9ed9d5fd32da5d333ca42c4",
      "contractAddress": null,
      "daFootprintGasScalar": "0x138",
      "l1BaseFeeScalar": "0x44d",
      "l1BlobBaseFee": "0x3304f4c",
      "l1BlobBaseFeeScalar": "0xa118b",
      "l1Fee": "0x33e7dd499",
      "l1GasPrice": "0x40157e53",
      "l1GasUsed": "0x640"
    },
    {
      "status": "0x1",
      "cumulativeGasUsed": "0x237a1a",
      "logs": [
        {
          "address": "0x5291b202a17bac5bf9ed9d5fd32da5d333ca42c4",
          "topics": [
            "0x956f4b06f20eda3aa4f6be9e72e8fc77beb3f95f4f2a95a796b2af742583d743"
          ],
          "data": "0x0000000000000000000000000000000000000000000000000000000000002222",
          "blockHash": "0x0000000000000000000000000000000000000000000000000000000000000000",
          "blockNumber": "0x239ad11",
          "blockTimestamp": "0x6986b902",
          "transactionHash": "0xed7846ef3c3add7bb45447d06daae7cfd03a1e189d450aedd389c3101a75ac9c",
          "transactionIndex": "0xa",
          "logIndex": "0x54",
          "removed": false
        }
      ],
      "logsBloom": "0x00002000000000000000000000000000000000000000000000000000000000000000000000000000000000000000000000000000000000000000000000000000000000000000200000000000000000000000000000000000000000000000000000000000000000000000000000000000000000000000000000000000000000020000000000000000000000000000000000000000000000000000000000004000000000000040000000000000000000000000000000000000000000000000000000000000000000000000000000000000000000000000000000000000000000000000400000000000000000000000000000000000000000000000000000000000",
      "type": "0x2",
      "transactionHash": "0xed7846ef3c3add7bb45447d06daae7cfd03a1e189d450aedd389c3101a75ac9c",
      "transactionIndex": "0xa",
      "blockHash": "0x0000000000000000000000000000000000000000000000000000000000000000",
      "blockNumber": "0x239ad11",
      "gasUsed": "0xb793",
      "effectiveGasPrice": "0x124f80",
      "blobGasUsed": "0x79e0",
      "from": "0xca9cdd6714033a4d08e4be479c1077e5b35f3a4b",
      "to": "0x5291b202a17bac5bf9ed9d5fd32da5d333ca42c4",
      "contractAddress": null,
      "daFootprintGasScalar": "0x138",
      "l1BaseFeeScalar": "0x44d",
      "l1BlobBaseFee": "0x3304f4c",
      "l1BlobBaseFeeScalar": "0xa118b",
      "l1Fee": "0x33e7dd499",
      "l1GasPrice": "0x40157e53",
      "l1GasUsed": "0x640"
    },
    {
      "status": "0x1",
      "cumulativeGasUsed": "0x2431ad",
      "logs": [
        {
          "address": "0x5291b202a17bac5bf9ed9d5fd32da5d333ca42c4",
          "topics": [
            "0x956f4b06f20eda3aa4f6be9e72e8fc77beb3f95f4f2a95a796b2af742583d743"
          ],
          "data": "0x0000000000000000000000000000000000000000000000000000000000003333",
          "blockHash": "0x0000000000000000000000000000000000000000000000000000000000000000",
          "blockNumber": "0x239ad11",
          "blockTimestamp": "0x6986b902",
          "transactionHash": "0x80d99617607ad56f3f2eb3f0a937e142ac2bd490333fd2ee242f6a90e8e1fd77",
          "transactionIndex": "0xb",
          "logIndex": "0x55",
          "removed": false
        }
      ],
      "logsBloom": "0x00002000000000000000000000000000000000000000000000000000000000000000000000000000000000000000000000000000000000000000000000000000000000000000200000000000000000000000000000000000000000000000000000000000000000000000000000000000000000000000000000000000000000020000000000000000000000000000000000000000000000000000000000004000000000000040000000000000000000000000000000000000000000000000000000000000000000000000000000000000000000000000000000000000000000000000400000000000000000000000000000000000000000000000000000000000",
      "type": "0x2",
      "transactionHash": "0x80d99617607ad56f3f2eb3f0a937e142ac2bd490333fd2ee242f6a90e8e1fd77",
      "transactionIndex": "0xb",
      "blockHash": "0x0000000000000000000000000000000000000000000000000000000000000000",
      "blockNumber": "0x239ad11",
      "gasUsed": "0xb793",
      "effectiveGasPrice": "0x124f80",
      "blobGasUsed": "0x79e0",
      "from": "0xca9cdd6714033a4d08e4be479c1077e5b35f3a4b",
      "to": "0x5291b202a17bac5bf9ed9d5fd32da5d333ca42c4",
      "contractAddress": null,
      "daFootprintGasScalar": "0x138",
      "l1BaseFeeScalar": "0x44d",
      "l1BlobBaseFee": "0x3304f4c",
      "l1BlobBaseFeeScalar": "0xa118b",
      "l1Fee": "0x33e7dd499",
      "l1GasPrice": "0x40157e53",
      "l1GasUsed": "0x640"
    }
  ],
  "libraries": [],
  "pending": [],
  "returns": {},
  "timestamp": 1770436866812,
  "chain": 84532,
  "commit": "628102f"
}