{
  "transactions": [
    {
      "hash": "0x23a27f0b3ee36a9b87ac68f2367026f84b2e3076728cc1573890fc6e10ea7ab7",
      "transactionType": "CALL",
      "contractName": null,
      "contractAddress": "0xd225cbf92dc4a0a9512094b215b7b4df2870dee8",
      "function": "initDao()",
      "arguments": [],
      "transaction": {
        "from": "0xca9cdd6714033a4d08e4be479c1077e5b35f3a4b",
        "to": "0xd225cbf92dc4a0a9512094b215b7b4df2870dee8",
        "gas": "0xf898",
        "value": "0x0",
        "input": "0x199ace8c",
        "nonce": "0x14",
        "chainId": "0x14a34"
      },
      "additionalContracts": [],
      "isFixedGasLimit": false
    },
    {
      "hash": "0x00246f841f9ccbf9f3931321aa8b3688063271e3bcba52c867f1f1c383d4ae1d",
      "transactionType": "CALL",
      "contractName": null,
      "contractAddress": "0xd225cbf92dc4a0a9512094b215b7b4df2870dee8",
      "function": "setChairperson(address)",
      "arguments": [
        "0xCa9cDD6714033a4D08e4BE479c1077e5B35f3a4B"
      ],
      "transaction": {
        "from": "0xca9cdd6714033a4d08e4be479c1077e5b35f3a4b",
        "to": "0xd225cbf92dc4a0a9512094b215b7b4df2870dee8",
        "gas": "0x9680",
        "value": "0x0",
        "input": "0xc4868f88000000000000000000000000ca9cdd6714033a4d08e4be479c1077e5b35f3a4b",
        "nonce": "0x15",
        "chainId": "0x14a34"
      },
      "additionalContracts": [],
      "isFixedGasLimit": false
    },
    {
      "hash": "0x433c2b78c32fe2f492134243378080dfc927dd6d8fd38ed83303f130ad38bf2a",
      "transactionType": "CALL",
      "contractName": null,
      "contractAddress": "0xd225cbf92dc4a0a9512094b215b7b4df2870dee8",
      "function": "addBoardMember(address)",
      "arguments": [
        "0xCa9cDD6714033a4D08e4BE479c1077e5B35f3a4B"
      ],
      "transaction": {
        "from": "0xca9cdd6714033a4d08e4be479c1077e5b35f3a4b",
        "to": "0xd225cbf92dc4a0a9512094b215b7b4df2870dee8",
        "gas": "0x10db5",
        "value": "0x0",
        "input": "0x1eac03ae000000000000000000000000ca9cdd6714033a4d08e4be479c1077e5b35f3a4b",
        "nonce": "0x16",
        "chainId": "0x14a34"
      },
      "additionalContracts": [],
      "isFixedGasLimit": false
    },
    {
      "hash": "0x95f49f673526528dd94898cb4200f8d15becc47aa52219d16ca42da26c15d0d9",
      "transactionType": "CALL",
      "contractName": null,
      "contractAddress": "0xd225cbf92dc4a0a9512094b215b7b4df2870dee8",
      "function": "addBoardMember(address)",
      "arguments": [
        "0x1111111111111111111111111111111111111111"
      ],
      "transaction": {
        "from": "0xca9cdd6714033a4d08e4be479c1077e5b35f3a4b",
        "to": "0xd225cbf92dc4a0a9512094b215b7b4df2870dee8",
        "gas": "0x10db5",
        "value": "0x0",
        "input": "0x1eac03ae0000000000000000000000001111111111111111111111111111111111111111",
        "nonce": "0x17",
        "chainId": "0x14a34"
      },
      "additionalContracts": [],
      "isFixedGasLimit": false
    },
    {
      "hash": "0x2cb3314c0c7c3c5ae85d0839fb6629f1cfca7429b0afa9a029bbbd1f5f06df06",
      "transactionType": "CALL",
      "contractName": null,
      "contractAddress": "0xd225cbf92dc4a0a9512094b215b7b4df2870dee8",
      "function": "addBoardMember(address)",
      "arguments": [
        "0x2222222222222222222222222222222222222222"
      ],
      "transaction": {
        "from": "0xca9cdd6714033a4d08e4be479c1077e5b35f3a4b",
        "to": "0xd225cbf92dc4a0a9512094b215b7b4df2870dee8",
        "gas": "0x10db5",
        "value": "0x0",
        "input": "0x1eac03ae0000000000000000000000002222222222222222222222222222222222222222",
        "nonce": "0x18",
        "chainId": "0x14a34"
      },
      "additionalContracts": [],
      "isFixedGasLimit": false
    },
    {
      "hash": "0x9b5646d21d93f48b6935a6340de7368fc3376559e56f3f7c7af2127e7e70e715",
      "transactionType": "CALL",
      "contractName": null,
      "contractAddress": "0xd225cbf92dc4a0a9512094b215b7b4df2870dee8",
      "function": "addBoardMember(address)",
      "arguments": [
        "0x3333333333333333333333333333333333333333"
      ],
      "transaction": {
        "from": "0xca9cdd6714033a4d08e4be479c1077e5b35f3a4b",
        "to": "0xd225cbf92dc4a0a9512094b215b7b4df2870dee8",
        "gas": "0x10db5",
        "value": "0x0",
        "input": "0x1eac03ae0000000000000000000000003333333333333333333333333333333333333333",
        "nonce": "0x19",
        "chainId": "0x14a34"
      },
      "additionalContracts": [],
      "isFixedGasLimit": false
    },
    {
      "hash": "0x9dfa207b485cc489ddaf1f6bc0ed3b8ee2a0b336faba726bceef55b50586d422",
      "transactionType": "CALL",
      "contractName": null,
      "contractAddress": "0xd225cbf92dc4a0a9512094b215b7b4df2870dee8",
      "function": "openSession(string)",
      "arguments": [
        "Ethereum Building @ Zonamerica Cali"
      ],
      "transaction": {
        "from": "0xca9cdd6714033a4d08e4be479c1077e5b35f3a4b",
        "to": "0xd225cbf92dc4a0a9512094b215b7b4df2870dee8",
        "gas": "0xaada",
        "value": "0x0",
        "input": "0xe910a91200000000000000000000000000000000000000000000000000000000000000200000000000000000000000000000000000000000000000000000000000000023457468657265756d204275696c64696e672040205a6f6e616d65726963612043616c690000000000000000000000000000000000000000000000000000000000",
        "nonce": "0x1a",
        "chainId": "0x14a34"
      },
      "additionalContracts": [],
      "isFixedGasLimit": false
    },
    {
      "hash": "0xe37a88f3d5fa0bd3168546ec9944b5c3a1e6dd1d4ab2f90a14932bf4af94e0a4",
      "transactionType": "CALL",
      "contractName": null,
      "contractAddress": "0xd225cbf92dc4a0a9512094b215b7b4df2870dee8",
      "function": "createResolution(string)",
      "arguments": [
        "Is construction viable in Zonamerica?"
      ],
      "transaction": {
        "from": "0xca9cdd6714033a4d08e4be479c1077e5b35f3a4b",
        "to": "0xd225cbf92dc4a0a9512094b215b7b4df2870dee8",
        "gas": "0x29865",
        "value": "0x0",
        "input": "0x01d6871700000000000000000000000000000000000000000000000000000000000000200000000000000000000000000000000000000000000000000000000000000025497320636f6e737472756374696f6e20766961626c6520696e205a6f6e616d65726963613f000000000000000000000000000000000000000000000000000000",
        "nonce": "0x1b",
        "chainId": "0x14a34"
      },
      "additionalContracts": [],
      "isFixedGasLimit": false
    },
    {
      "hash": "0x73e8b88827d2394451437df95cdf94f8862137269fd3b267a1973d03b3df1391",
      "transactionType": "CALL",
      "contractName": null,
      "contractAddress": "0xd225cbf92dc4a0a9512094b215b7b4df2870dee8",
      "function": "createResolution(string)",
      "arguments": [
        "Is required land available?"
      ],
      "transaction": {
        "from": "0xca9cdd6714033a4d08e4be479c1077e5b35f3a4b",
        "to": "0xd225cbf92dc4a0a9512094b215b7b4df2870dee8",
        "gas": "0x1363e",
        "value": "0x0",
        "input": "0x01d687170000000000000000000000000000000000000000000000000000000000000020000000000000000000000000000000000000000000000000000000000000001b4973207265717569726564206c616e6420617661696c61626c653f0000000000",
        "nonce": "0x1c",
        "chainId": "0x14a34"
      },
      "additionalContracts": [],
      "isFixedGasLimit": false
    },
    {
      "hash": "0x17f0305d38456a3e80951c2f50fb1d724250d5ff3a7a9085aafcc6355cf9e1da",
      "transactionType": "CALL",
      "contractName": null,
      "contractAddress": "0xd225cbf92dc4a0a9512094b215b7b4df2870dee8",
      "function": "createResolution(string)",
      "arguments": [
        "Does the building align with Zonamerica goals?"
      ],
      "transaction": {
        "from": "0xca9cdd6714033a4d08e4be479c1077e5b35f3a4b",
        "to": "0xd225cbf92dc4a0a9512094b215b7b4df2870dee8",
        "gas": "0x23752",
        "value": "0x0",
        "input": "0x01d687170000000000000000000000000000000000000000000000000000000000000020000000000000000000000000000000000000000000000000000000000000002e446f657320746865206275696c64696e6720616c69676e2077697468205a6f6e616d657269636120676f616c733f000000000000000000000000000000000000",
        "nonce": "0x1d",
        "chainId": "0x14a34"
      },
      "additionalContracts": [],
      "isFixedGasLimit": false
    },
    {
      "hash": "0x81708ea698f330a43f2a43884fb11f65edb17488cbc66569885e2d8aa2ffdf70",
      "transactionType": "CALL",
      "contractName": null,
      "contractAddress": "0xd225cbf92dc4a0a9512094b215b7b4df2870dee8",
      "function": "createResolution(string)",
      "arguments": [
        "Final approval for construction"
      ],
      "transaction": {
        "from": "0xca9cdd6714033a4d08e4be479c1077e5b35f3a4b",
        "to": "0xd225cbf92dc4a0a9512094b215b7b4df2870dee8",
        "gas": "0x13684",
        "value": "0x0",
        "input": "0x01d687170000000000000000000000000000000000000000000000000000000000000020000000000000000000000000000000000000000000000000000000000000001f46696e616c20617070726f76616c20666f7220636f6e737472756374696f6e00",
        "nonce": "0x1e",
        "chainId": "0x14a34"
      },
      "additionalContracts": [],
      "isFixedGasLimit": false
    },
    {
      "hash": "0xf308b8f1255eaf098fd4140854fc48efa4c7690dd6161b0a5a971062b68c6687",
      "transactionType": "CALL",
      "contractName": null,
      "contractAddress": "0xd225cbf92dc4a0a9512094b215b7b4df2870dee8",
      "function": "vote(uint256,bool)",
      "arguments": [
        "0",
        "true"
      ],
      "transaction": {
        "from": "0xca9cdd6714033a4d08e4be479c1077e5b35f3a4b",
        "to": "0xd225cbf92dc4a0a9512094b215b7b4df2870dee8",
        "gas": "0x186c1",
        "value": "0x0",
        "input": "0xc9d27afe00000000000000000000000000000000000000000000000000000000000000000000000000000000000000000000000000000000000000000000000000000001",
        "nonce": "0x1f",
        "chainId": "0x14a34"
      },
      "additionalContracts": [],
      "isFixedGasLimit": false
    },
    {
      "hash": "0x370414f4f00cfc78eb672e0dc4ec880228b8104e55666da244a0ef74e3205643",
      "transactionType": "CALL",
      "contractName": null,
      "contractAddress": "0xd225cbf92dc4a0a9512094b215b7b4df2870dee8",
      "function": "vote(uint256,bool)",
      "arguments": [
        "1",
        "true"
      ],
      "transaction": {
        "from": "0xca9cdd6714033a4d08e4be479c1077e5b35f3a4b",
        "to": "0xd225cbf92dc4a0a9512094b215b7b4df2870dee8",
        "gas": "0x19dcf",
        "value": "0x0",
        "input": "0xc9d27afe00000000000000000000000000000000000000000000000000000000000000010000000000000000000000000000000000000000000000000000000000000001",
        "nonce": "0x20",
        "chainId": "0x14a34"
      },
      "additionalContracts": [],
      "isFixedGasLimit": false
    },
    {
      "hash": "0xb09d822913c54a83df05d3ccf58b8af8f87d0a3ef3884c2ecfe58c06cfe0ed25",
      "transactionType": "CALL",
      "contractName": null,
      "contractAddress": "0xd225cbf92dc4a0a9512094b215b7b4df2870dee8",
      "function": "vote(uint256,bool)",
      "arguments": [
        "2",
        "true"
      ],
      "transaction": {
        "from": "0xca9cdd6714033a4d08e4be479c1077e5b35f3a4b",
        "to": "0xd225cbf92dc4a0a9512094b215b7b4df2870dee8",
        "gas": "0x19dcf",
        "value": "0x0",
        "input": "0xc9d27afe00000000000000000000000000000000000000000000000000000000000000020000000000000000000000000000000000000000000000000000000000000001",
        "nonce": "0x21",
        "chainId": "0x14a34"
      },
      "additionalContracts": [],
      "isFixedGasLimit": false
    },
    {
      "hash": "0xbaaa7eb7ee06d0071b3055d2dc1ad4a70fce35b70b83b1a7387c70fc9816a175",
      "transactionType": "CALL",
      "contractName": null,
      "contractAddress": "0xd225cbf92dc4a0a9512094b215b7b4df2870dee8",
      "function": "vote(uint256,bool)",
      "arguments": [
        "3",
        "true"
      ],
      "transaction": {
        "from": "0xca9cdd6714033a4d08e4be479c1077e5b35f3a4b",
        "to": "0xd225cbf92dc4a0a9512094b215b7b4df2870dee8",
        "gas": "0x19dcf",
        "value": "0x0",
        "input": "0xc9d27afe00000000000000000000000000000000000000000000000000000000000000030000000000000000000000000000000000000000000000000000000000000001",
        "nonce": "0x22",
        "chainId": "0x14a34"
      },
      "additionalContracts": [],
      "isFixedGasLimit": false
    }
  ],
  "receipts": [
    {
      "status": "0x1",
      "cumulativeGasUsed": "0x31b062",
      "logs": [],
      "logsBloom": "0x00000000000000000000000000000000000000000000000000000000000000000000000000000000000000000000000000000000000000000000000000000000000000000000000000000000000000000000000000000000000000000000000000000000000000000000000000000000000000000000000000000000000000000000000000000000000000000000000000000000000000000000000000000000000000000000000000000000000000000000000000000000000000000000000000000000000000000000000000000000000000000000000000000000000000000000000000000000000000000000000000000000000000000000000000000000",
      "type": "0x2",
      "transactionHash": "0x23a27f0b3ee36a9b87ac68f2367026f84b2e3076728cc1573890fc6e10ea7ab7",
      "transactionIndex": "0xf",
      "blockHash": "0xf2ad556c55b5ce261230c7b178c011225529a5a228e587984e145b2fcd7f78dd",
      "blockNumber": "0x23a0c32",
      "gasUsed": "0xa9fb",
      "effectiveGasPrice": "0x124546",
      "blobGasUsed": "0x79e0",
      "from": "0xca9cdd6714033a4d08e4be479c1077e5b35f3a4b",
      "to": "0xd225cbf92dc4a0a9512094b215b7b4df2870dee8",
      "contractAddress": null,
      "daFootprintGasScalar": "0x138",
      "l1BaseFeeScalar": "0x44d",
      "l1BlobBaseFee": "0x376390a",
      "l1BlobBaseFeeScalar": "0xa118b",
      "l1Fee": "0x146ebd301",
      "l1GasPrice": "0x37e94ee1",
      "l1GasUsed": "0x640"
    },
    {
      "status": "0x1",
      "cumulativeGasUsed": "0x321d58",
      "logs": [
        {
          "address": "0xd225cbf92dc4a0a9512094b215b7b4df2870dee8",
          "topics": [
            "0xef3b4440f0fa9f21178057b45e2d668308ca351158e94345bf17a32129102f3f"
          ],
          "data": "0x000000000000000000000000ca9cdd6714033a4d08e4be479c1077e5b35f3a4b",
          "blockHash": "0xf2ad556c55b5ce261230c7b178c011225529a5a228e587984e145b2fcd7f78dd",
          "blockNumber": "0x23a0c32",
          "blockTimestamp": "0x69877744",
          "transactionHash": "0x00246f841f9ccbf9f3931321aa8b3688063271e3bcba52c867f1f1c383d4ae1d",
          "transactionIndex": "0x10",
          "logIndex": "0xa5",
          "removed": false
        }
      ],
      "logsBloom": "0x00000000000000000000000010000000000000000000000000000000000000000000000000000000000000000000000000000000000000000000000000800000002000000000000000000000000000000000000000000000000000000000000000000000000000000000000000000000000000000000000000000000000000000000000000000000000000008000000000000000000000000000000000000000000000000000000000000000000000000000000000000400000000000000000000000000000000000000000000000000000000000000000000000000000000000000000020000000000000000000000000000000000000000000000000000000",
      "type": "0x2",
      "transactionHash": "0x00246f841f9ccbf9f3931321aa8b3688063271e3bcba52c867f1f1c383d4ae1d",
      "transactionIndex": "0x10",
      "blockHash": "0xf2ad556c55b5ce261230c7b178c011225529a5a228e587984e145b2fcd7f78dd",
      "blockNumber": "0x23a0c32",
      "gasUsed": "0x6cf6",
      "effectiveGasPrice": "0x124546",
      "blobGasUsed": "0x79e0",
      "from": "0xca9cdd6714033a4d08e4be479c1077e5b35f3a4b",
      "to": "0xd225cbf92dc4a0a9512094b215b7b4df2870dee8",
      "contractAddress": null,
      "daFootprintGasScalar": "0x138",
      "l1BaseFeeScalar": "0x44d",
      "l1BlobBaseFee": "0x376390a",
      "l1BlobBaseFeeScalar": "0xa118b",
      "l1Fee": "0x146ebd301",
      "l1GasPrice": "0x37e94ee1",
      "l1GasUsed": "0x640"
    },
    {
      "status": "0x1",
      "cumulativeGasUsed": "0x32d5c3",
      "logs": [
        {
          "address": "0xd225cbf92dc4a0a9512094b215b7b4df2870dee8",
          "topics": [
            "0x956f4b06f20eda3aa4f6be9e72e8fc77beb3f95f4f2a95a796b2af742583d743"
          ],
          "data": "0x000000000000000000000000ca9cdd6714033a4d08e4be479c1077e5b35f3a4b",
          "blockHash": "0xf2ad556c55b5ce261230c7b178c011225529a5a228e587984e145b2fcd7f78dd",
          "blockNumber": "0x23a0c32",
          "blockTimestamp": "0x69877744",
          "transactionHash": "0x433c2b78c32fe2f492134243378080dfc927dd6d8fd38ed83303f130ad38bf2a",
          "transactionIndex": "0x11",
          "logIndex": "0xa6",
          "removed": false
        }
      ],
      "logsBloom": "0x00000000000000000000000010000000000000000000000000000000000000000000000000000000000000000000000000000000000000000000000000000000000000000000200000000000000000000000000000000000000000000000000000000000000000000000000000000000000000000000000000000000000000020000000000000000000000008000000000000000000000000000000000004000000000000000000000000000000000000000000000000000000000000000000000000000000000000000000000000000000000000000000000000000000000000000000020000000000000000000000000000000000000000000000000000000",
      "type": "0x2",
      "transactionHash": "0x433c2b78c32fe2f492134243378080dfc927dd6d8fd38ed83303f130ad38bf2a",
      "transactionIndex": "0x11",
      "blockHash": "0xf2ad556c55b5ce261230c7b178c011225529a5a228e587984e145b2fcd7f78dd",
      "blockNumber": "0x23a0c32",
      "gasUsed": "0xb86b",
      "effectiveGasPrice": "0x124546",
      "blobGasUsed": "0x79e0",
      "from": "0xca9cdd6714033a4d08e4be479c1077e5b35f3a4b",
      "to": "0xd225cbf92dc4a0a9512094b215b7b4df2870dee8",
      "contractAddress": null,
      "daFootprintGasScalar": "0x138",
      "l1BaseFeeScalar": "0x44d",
      "l1BlobBaseFee": "0x376390a",
      "l1BlobBaseFeeScalar": "0xa118b",
      "l1Fee": "0x146ebd301",
      "l1GasPrice": "0x37e94ee1",
      "l1GasUsed": "0x640"
    },
    {
      "status": "0x1",
      "cumulativeGasUsed": "0x338e2e",
      "logs": [
        {
          "address": "0xd225cbf92dc4a0a9512094b215b7b4df2870dee8",
          "topics": [
            "0x956f4b06f20eda3aa4f6be9e72e8fc77beb3f95f4f2a95a796b2af742583d743"
          ],
          "data": "0x0000000000000000000000001111111111111111111111111111111111111111",
          "blockHash": "0xf2ad556c55b5ce261230c7b178c011225529a5a228e587984e145b2fcd7f78dd",
          "blockNumber": "0x23a0c32",
          "blockTimestamp": "0x69877744",
          "transactionHash": "0x95f49f673526528dd94898cb4200f8d15becc47aa52219d16ca42da26c15d0d9",
          "transactionIndex": "0x12",
          "logIndex": "0xa7",
          "removed": false
        }
      ],
      "logsBloom": "0x00000000000000000000000010000000000000000000000000000000000000000000000000000000000000000000000000000000000000000000000000000000000000000000200000000000000000000000000000000000000000000000000000000000000000000000000000000000000000000000000000000000000000020000000000000000000000008000000000000000000000000000000000004000000000000000000000000000000000000000000000000000000000000000000000000000000000000000000000000000000000000000000000000000000000000000000020000000000000000000000000000000000000000000000000000000",
      "type": "0x2",
      "transactionHash": "0x95f49f673526528dd94898cb4200f8d15becc47aa52219d16ca42da26c15d0d9",
      "transactionIndex": "0x12",
      "blockHash": "0xf2ad556c55b5ce261230c7b178c011225529a5a228e587984e145b2fcd7f78dd",
      "blockNumber": "0x23a0c32",
      "gasUsed": "0xb86b",
      "effectiveGasPrice": "0x124546",
      "blobGasUsed": "0x79e0",
      "from": "0xca9cdd6714033a4d08e4be479c1077e5b35f3a4b",
      "to": "0xd225cbf92dc4a0a9512094b215b7b4df2870dee8",
      "contractAddress": null,
      "daFootprintGasScalar": "0x138",
      "l1BaseFeeScalar": "0x44d",
      "l1BlobBaseFee": "0x376390a",
      "l1BlobBaseFeeScalar": "0xa118b",
      "l1Fee": "0x146ebd301",
      "l1GasPrice": "0x37e94ee1",
      "l1GasUsed": "0x640"
    },
    {
      "status": "0x1",
      "cumulativeGasUsed": "0x344699",
      "logs": [
        {
          "address": "0xd225cbf92dc4a0a9512094b215b7b4df2870dee8",
          "topics": [
            "0x956f4b06f20eda3aa4f6be9e72e8fc77beb3f95f4f2a95a796b2af742583d743"
          ],
          "data": "0x0000000000000000000000002222222222222222222222222222222222222222",
          "blockHash": "0xf2ad556c55b5ce261230c7b178c011225529a5a228e587984e145b2fcd7f78dd",
          "blockNumber": "0x23a0c32",
          "blockTimestamp": "0x69877744",
          "transactionHash": "0x2cb3314c0c7c3c5ae85d0839fb6629f1cfca7429b0afa9a029bbbd1f5f06df06",
          "transactionIndex": "0x13",
          "logIndex": "0xa8",
          "removed": false
        }
      ],
      "logsBloom": "0x00000000000000000000000010000000000000000000000000000000000000000000000000000000000000000000000000000000000000000000000000000000000000000000200000000000000000000000000000000000000000000000000000000000000000000000000000000000000000000000000000000000000000020000000000000000000000008000000000000000000000000000000000004000000000000000000000000000000000000000000000000000000000000000000000000000000000000000000000000000000000000000000000000000000000000000000020000000000000000000000000000000000000000000000000000000",
      "type": "0x2",
      "transactionHash": "0x2cb3314c0c7c3c5ae85d0839fb6629f1cfca7429b0afa9a029bbbd1f5f06df06",
      "transactionIndex": "0x13",
      "blockHash": "0xf2ad556c55b5ce261230c7b178c011225529a5a228e587984e145b2fcd7f78dd",
      "blockNumber": "0x23a0c32",
      "gasUsed": "0xb86b",
      "effectiveGasPrice": "0x124546",
      "blobGasUsed": "0x79e0",
      "from": "0xca9cdd6714033a4d08e4be479c1077e5b35f3a4b",
      "to": "0xd225cbf92dc4a0a9512094b215b7b4df2870dee8",
      "contractAddress": null,
      "daFootprintGasScalar": "0x138",
      "l1BaseFeeScalar": "0x44d",
      "l1BlobBaseFee": "0x376390a",
      "l1BlobBaseFeeScalar": "0xa118b",
      "l1Fee": "0x146ebd301",
      "l1GasPrice": "0x37e94ee1",
      "l1GasUsed": "0x640"
    },
    {
      "status": "0x1",
      "cumulativeGasUsed": "0x34ff04",
      "logs": [
        {
          "address": "0xd225cbf92dc4a0a9512094b215b7b4df2870dee8",
          "topics": [
            "0x956f4b06f20eda3aa4f6be9e72e8fc77beb3f95f4f2a95a796b2af742583d743"
          ],
          "data": "0x0000000000000000000000003333333333333333333333333333333333333333",
          "blockHash": "0xf2ad556c55b5ce261230c7b178c011225529a5a228e587984e145b2fcd7f78dd",
          "blockNumber": "0x23a0c32",
          "blockTimestamp": "0x69877744",
          "transactionHash": "0x9b5646d21d93f48b6935a6340de7368fc3376559e56f3f7c7af2127e7e70e715",
          "transactionIndex": "0x14",
          "logIndex": "0xa9",
          "removed": false
        }
      ],
      "logsBloom": "0x00000000000000000000000010000000000000000000000000000000000000000000000000000000000000000000000000000000000000000000000000000000000000000000200000000000000000000000000000000000000000000000000000000000000000000000000000000000000000000000000000000000000000020000000000000000000000008000000000000000000000000000000000004000000000000000000000000000000000000000000000000000000000000000000000000000000000000000000000000000000000000000000000000000000000000000000020000000000000000000000000000000000000000000000000000000",
      "type": "0x2",
      "transactionHash": "0x9b5646d21d93f48b6935a6340de7368fc3376559e56f3f7c7af2127e7e70e715",
      "transactionIndex": "0x14",
      "blockHash": "0xf2ad556c55b5ce261230c7b178c011225529a5a228e587984e145b2fcd7f78dd",
      "blockNumber": "0x23a0c32",
      "gasUsed": "0xb86b",
      "effectiveGasPrice": "0x124546",
      "blobGasUsed": "0x79e0",
      "from": "0xca9cdd6714033a4d08e4be479c1077e5b35f3a4b",
      "to": "0xd225cbf92dc4a0a9512094b215b7b4df2870dee8",
      "contractAddress": null,
      "daFootprintGasScalar": "0x138",
      "l1BaseFeeScalar": "0x44d",
      "l1BlobBaseFee": "0x376390a",
      "l1BlobBaseFeeScalar": "0xa118b",
      "l1Fee": "0x146ebd301",
      "l1GasPrice": "0x37e94ee1",
      "l1GasUsed": "0x640"
    },
    {
      "status": "0x1",
      "cumulativeGasUsed": "0x3573d7",
      "logs": [
        {
          "address": "0xd225cbf92dc4a0a9512094b215b7b4df2870dee8",
          "topics": [
            "0x42f534d7bcf84fdc2a1ae194b51e7e02088c90a969177b25138b2bdc93ac2778"
          ],
          "data": "0x00000000000000000000000000000000000000000000000000000000000000200000000000000000000000000000000000000000000000000000000000000023457468657265756d204275696c64696e672040205a6f6e616d65726963612043616c690000000000000000000000000000000000000000000000000000000000",
          "blockHash": "0xf2ad556c55b5ce261230c7b178c011225529a5a228e587984e145b2fcd7f78dd",
          "blockNumber": "0x23a0c32",
          "blockTimestamp": "0x69877744",
          "transactionHash": "0x9dfa207b485cc489ddaf1f6bc0ed3b8ee2a0b336faba726bceef55b50586d422",
          "transactionIndex": "0x15",
          "logIndex": "0xaa",
          "removed": false
        }
      ],
      "logsBloom": "0x00000000000000000000000010000000000000000000000000000000000000000000000000000000000000000000000000000000000000000000000000000000002000000000000000000000000000000000000000000000000000000000000000000000000000000000000000000000000000000000000000000000000000000000080000000000000000008000000000000000000000000000000000000000000000000000000000000000000000000000000000000000000000000000000000000000000000000000000000000000000000000000000000000000000000000000000120000000000000000000000000000000000000000000000000000000",
      "type": "0x2",
      "transactionHash": "0x9dfa207b485cc489ddaf1f6bc0ed3b8ee2a0b336faba726bceef55b50586d422",
      "transactionIndex": "0x15",
      "blockHash": "0xf2ad556c55b5ce261230c7b178c011225529a5a228e587984e145b2fcd7f78dd",
      "blockNumber": "0x23a0c32",
      "gasUsed": "0x74d3",
      "effectiveGasPrice": "0x124546",
      "blobGasUsed": "0x7c50",
      "from": "0xca9cdd6714033a4d08e4be479c1077e5b35f3a4b",
      "to": "0xd225cbf92dc4a0a9512094b215b7b4df2870dee8",
      "contractAddress": null,
      "daFootprintGasScalar": "0x138",
      "l1BaseFeeScalar": "0x44d",
      "l1BlobBaseFee": "0x376390a",
      "l1BlobBaseFeeScalar": "0xa118b",
      "l1Fee": "0x14de18a1c",
      "l1GasPrice": "0x37e94ee1",
      "l1GasUsed": "0x662"
    },
    {
      "status": "0x1",
      "cumulativeGasUsed": "0x388ef5",
      "logs": [
        {
          "address": "0xd225cbf92dc4a0a9512094b215b7b4df2870dee8",
          "topics": [
            "0xc2c2e99a55e0846ef03fc4318d42a1eee35fda4f6802c4e7617cb125d2399b5e"
          ],
          "data": "0x000000000000000000000000000000000000000000000000000000000000000000000000000000000000000000000000000000000000000000000000000000400000000000000000000000000000000000000000000000000000000000000025497320636f6e737472756374696f6e20766961626c6520696e205a6f6e616d65726963613f000000000000000000000000000000000000000000000000000000",
          "blockHash": "0xf2ad556c55b5ce261230c7b178c011225529a5a228e587984e145b2fcd7f78dd",
          "blockNumber": "0x23a0c32",
          "blockTimestamp": "0x69877744",
          "transactionHash": "0xe37a88f3d5fa0bd3168546ec9944b5c3a1e6dd1d4ab2f90a14932bf4af94e0a4",
          "transactionIndex": "0x17",
          "logIndex": "0xad",
          "removed": false
        }
      ],
      "logsBloom": "0x00000000000000000000000010000000000000000000000000000000000000000000000000000000000000000000000000000000000000000800000000000000020000000000000000000000000000000000000000000000000000000000000000000000000000000000000000000000000000000000000000000000000000000000000000000000000000008000000000000000000000000000000000000000000000000000000000000000000000000000000000000000000000000000000000000000000000000000000000000000000000000000000000000000000000000000000020000000000000000000000000000000000000000000002000000000",
      "type": "0x2",
      "transactionHash": "0xe37a88f3d5fa0bd3168546ec9944b5c3a1e6dd1d4ab2f90a14932bf4af94e0a4",
      "transactionIndex": "0x17",
      "blockHash": "0xf2ad556c55b5ce261230c7b178c011225529a5a228e587984e145b2fcd7f78dd",
      "blockNumber": "0x23a0c32",
      "gasUsed": "0x1c64a",
      "effectiveGasPrice": "0x124546",
      "blobGasUsed": "0x7ec0",
      "from": "0xca9cdd6714033a4d08e4be479c1077e5b35f3a4b",
      "to": "0xd225cbf92dc4a0a9512094b215b7b4df2870dee8",
      "contractAddress": null,
      "daFootprintGasScalar": "0x138",
      "l1BaseFeeScalar": "0x44d",
      "l1BlobBaseFee": "0x376390a",
      "l1BlobBaseFeeScalar": "0xa118b",
      "l1Fee": "0x15615c92b",
      "l1GasPrice": "0x37e94ee1",
      "l1GasUsed": "0x68a"
    },
    {
      "status": "0x1",
      "cumulativeGasUsed": "0x188b8",
      "logs": [
        {
          "address": "0xd225cbf92dc4a0a9512094b215b7b4df2870dee8",
          "topics": [
            "0xc2c2e99a55e0846ef03fc4318d42a1eee35fda4f6802c4e7617cb125d2399b5e"
          ],
          "data": "0x00000000000000000000000000000000000000000000000000000000000000010000000000000000000000000000000000000000000000000000000000000040000000000000000000000000000000000000000000000000000000000000001b4973207265717569726564206c616e6420617661696c61626c653f0000000000",
          "blockHash": "0x0000000000000000000000000000000000000000000000000000000000000000",
          "blockNumber": "0x23a0c33",
          "blockTimestamp": "0x69877746",
          "transactionHash": "0x73e8b88827d2394451437df95cdf94f8862137269fd3b267a1973d03b3df1391",
          "transactionIndex": "0x1",
          "logIndex": "0x0",
          "removed": false
        }
      ],
      "logsBloom": "0x00000000000000000000000010000000000000000000000000000000000000000000000000000000000000000000000000000000000000000800000000000000020000000000000000000000000000000000000000000000000000000000000000000000000000000000000000000000000000000000000000000000000000000000000000000000000000008000000000000000000000000000000000000000000000000000000000000000000000000000000000000000000000000000000000000000000000000000000000000000000000000000000000000000000000000000000020000000000000000000000000000000000000000000002000000000",
      "type": "0x2",
      "transactionHash": "0x73e8b88827d2394451437df95cdf94f8862137269fd3b267a1973d03b3df1391",
      "transactionIndex": "0x1",
      "blockHash": "0x0000000000000000000000000000000000000000000000000000000000000000",
      "blockNumber": "0x23a0c33",
      "gasUsed": "0xd422",
      "effectiveGasPrice": "0x124546",
      "blobGasUsed": "0x79e0",
      "from": "0xca9cdd6714033a4d08e4be479c1077e5b35f3a4b",
      "to": "0xd225cbf92dc4a0a9512094b215b7b4df2870dee8",
      "contractAddress": null,
      "daFootprintGasScalar": "0x138",
      "l1BaseFeeScalar": "0x44d",
      "l1BlobBaseFee": "0x376390a",
      "l1BlobBaseFeeScalar": "0xa118b",
      "l1Fee": "0x146ebd301",
      "l1GasPrice": "0x37e94ee1",
      "l1GasUsed": "0x640"
    },
    {
      "status": "0x1",
      "cumulativeGasUsed": "0x30ca2",
      "logs": [
        {
          "address": "0xd225cbf92dc4a0a9512094b215b7b4df2870dee8",
          "topics": [
            "0xc2c2e99a55e0846ef03fc4318d42a1eee35fda4f6802c4e7617cb125d2399b5e"
          ],
          "data": "0x00000000000000000000000000000000000000000000000000000000000000020000000000000000000000000000000000000000000000000000000000000040000000000000000000000000000000000000000000000000000000000000002e446f657320746865206275696c64696e6720616c69676e2077697468205a6f6e616d657269636120676f616c733f000000000000000000000000000000000000",
          "blockHash": "0x0000000000000000000000000000000000000000000000000000000000000000",
          "blockNumber": "0x23a0c33",
          "blockTimestamp": "0x69877746",
          "transactionHash": "0x17f0305d38456a3e80951c2f50fb1d724250d5ff3a7a9085aafcc6355cf9e1da",
          "transactionIndex": "0x2",
          "logIndex": "0x1",
          "removed": false
        }
      ],
      "logsBloom": "0x00000000000000000000000010000000000000000000000000000000000000000000000000000000000000000000000000000000000000000800000000000000020000000000000000000000000000000000000000000000000000000000000000000000000000000000000000000000000000000000000000000000000000000000000000000000000000008000000000000000000000000000000000000000000000000000000000000000000000000000000000000000000000000000000000000000000000000000000000000000000000000000000000000000000000000000000020000000000000000000000000000000000000000000002000000000",
      "type": "0x2",
      "transactionHash": "0x17f0305d38456a3e80951c2f50fb1d724250d5ff3a7a9085aafcc6355cf9e1da",
      "transactionIndex": "0x2",
      "blockHash": "0x0000000000000000000000000000000000000000000000000000000000000000",
      "blockNumber": "0x23a0c33",
      "gasUsed": "0x183ea",
      "effectiveGasPrice": "0x124546",
      "blobGasUsed": "0x8880",
      "from": "0xca9cdd6714033a4d08e4be479c1077e5b35f3a4b",
      "to": "0xd225cbf92dc4a0a9512094b215b7b4df2870dee8",
      "contractAddress": null,
      "daFootprintGasScalar": "0x138",
      "l1BaseFeeScalar": "0x44d",
      "l1BlobBaseFee": "0x376390a",
      "l1BlobBaseFeeScalar": "0xa118b",
      "l1Fee": "0x146ebd301",
      "l1GasPrice": "0x37e94ee1",
      "l1GasUsed": "0x702"
    },
    {
      "status": "0x1",
      "cumulativeGasUsed": "0x3e0f4",
      "logs": [
        {
          "address": "0xd225cbf92dc4a0a9512094b215b7b4df2870dee8",
          "topics": [
            "0xc2c2e99a55e0846ef03fc4318d42a1eee35fda4f6802c4e7617cb125d2399b5e"
          ],
          "data": "0x00000000000000000000000000000000000000000000000000000000000000030000000000000000000000000000000000000000000000000000000000000040000000000000000000000000000000000000000000000000000000000000001f46696e616c20617070726f76616c20666f7220636f6e737472756374696f6e00",
          "blockHash": "0x0000000000000000000000000000000000000000000000000000000000000000",
          "blockNumber": "0x23a0c33",
          "blockTimestamp": "0x69877746",
          "transactionHash": "0x81708ea698f330a43f2a43884fb11f65edb17488cbc66569885e2d8aa2ffdf70",
          "transactionIndex": "0x3",
          "logIndex": "0x2",
          "removed": false
        }
      ],
      "logsBloom": "0x00000000000000000000000010000000000000000000000000000000000000000000000000000000000000000000000000000000000000000800000000000000020000000000000000000000000000000000000000000000000000000000000000000000000000000000000000000000000000000000000000000000000000000000000000000000000000008000000000000000000000000000000000000000000000000000000000000000000000000000000000000000000000000000000000000000000000000000000000000000000000000000000000000000000000000000000020000000000000000000000000000000000000000000002000000000",
      "type": "0x2",
      "transactionHash": "0x81708ea698f330a43f2a43884fb11f65edb17488cbc66569885e2d8aa2ffdf70",
      "transactionIndex": "0x3",
      "blockHash": "0x0000000000000000000000000000000000000000000000000000000000000000",
      "blockNumber": "0x23a0c33",
      "gasUsed": "0xd452",
      "effectiveGasPrice": "0x124546",
      "blobGasUsed": "0x79e0",
      "from": "0xca9cdd6714033a4d08e4be479c1077e5b35f3a4b",
      "to": "0xd225cbf92dc4a0a9512094b215b7b4df2870dee8",
      "contractAddress": null,
      "daFootprintGasScalar": "0x138",
      "l1BaseFeeScalar": "0x44d",
      "l1BlobBaseFee": "0x376390a",
      "l1BlobBaseFeeScalar": "0xa118b",
      "l1Fee": "0x146ebd301",
      "l1GasPrice": "0x37e94ee1",
      "l1GasUsed": "0x640"
    },
    {
      "status": "0x1",
      "cumulativeGasUsed": "0x4fbdb",
      "logs": [
        {
          "address": "0xd225cbf92dc4a0a9512094b215b7b4df2870dee8",
          "topics": [
            "0x749addf8eadeff63c43be59c27331be5c6d4fc9e82bbfbcf162321c9b35a95b4"
          ],
          "data": "0x000000000000000000000000ca9cdd6714033a4d08e4be479c1077e5b35f3a4b00000000000000000000000000000000000000000000000000000000000000000000000000000000000000000000000000000000000000000000000000000001",
          "blockHash": "0x0000000000000000000000000000000000000000000000000000000000000000",
          "blockNumber": "0x23a0c33",
          "blockTimestamp": "0x69877746",
          "transactionHash": "0xf308b8f1255eaf098fd4140854fc48efa4c7690dd6161b0a5a971062b68c6687",
          "transactionIndex": "0x4",
          "logIndex": "0x3",
          "removed": false
        }
      ],
      "logsBloom": "0x00000000000000000000000010000000000000000000000000000000000000008000000000000000000000000000000000000000000000000000000000000000000000000000000000000000000000000000000000000000000000000000000000000000000000000000000000000000000000000000000000000000000000000000000000000000000000008000000000000000000000000000000000000000000000000000000000000000000000000000000000000000000000000000000000000000000000000000000000000000000000000000000000000004000000000000000020000000000000000000000000000000000000100000000000000000",
      "type": "0x2",
      "transactionHash": "0xf308b8f1255eaf098fd4140854fc48efa4c7690dd6161b0a5a971062b68c6687",
      "transactionIndex": "0x4",
      "blockHash": "0x0000000000000000000000000000000000000000000000000000000000000000",
      "blockNumber": "0x23a0c33",
      "gasUsed": "0x11ae7",
      "effectiveGasPrice": "0x124546",
      "blobGasUsed": "0x79e0",
      "from": "0xca9cdd6714033a4d08e4be479c1077e5b35f3a4b",
      "to": "0xd225cbf92dc4a0a9512094b215b7b4df2870dee8",
      "contractAddress": null,
      "daFootprintGasScalar": "0x138",
      "l1BaseFeeScalar": "0x44d",
      "l1BlobBaseFee": "0x376390a",
      "l1BlobBaseFeeScalar": "0xa118b",
      "l1Fee": "0x146ebd301",
      "l1GasPrice": "0x37e94ee1",
      "l1GasUsed": "0x640"
    },
    {
      "status": "0x1",
      "cumulativeGasUsed": "0x616ce",
      "logs": [
        {
          "address": "0xd225cbf92dc4a0a9512094b215b7b4df2870dee8",
          "topics": [
            "0x749addf8eadeff63c43be59c27331be5c6d4fc9e82bbfbcf162321c9b35a95b4"
          ],
          "data": "0x000000000000000000000000ca9cdd6714033a4d08e4be479c1077e5b35f3a4b00000000000000000000000000000000000000000000000000000000000000010000000000000000000000000000000000000000000000000000000000000001",
          "blockHash": "0x0000000000000000000000000000000000000000000000000000000000000000",
          "blockNumber": "0x23a0c33",
          "blockTimestamp": "0x69877746",
          "transactionHash": "0x370414f4f00cfc78eb672e0dc4ec880228b8104e55666da244a0ef74e3205643",
          "transactionIndex": "0x5",
          "logIndex": "0x4",
          "removed": false
        }
      ],
      "logsBloom": "0x00000000000000000000000010000000000000000000000000000000000000008000000000000000000000000000000000000000000000000000000000000000000000000000000000000000000000000000000000000000000000000000000000000000000000000000000000000000000000000000000000000000000000000000000000000000000000008000000000000000000000000000000000000000000000000000000000000000000000000000000000000000000000000000000000000000000000000000000000000000000000000000000000000004000000000000000020000000000000000000000000000000000000100000000000000000",
      "type": "0x2",
      "transactionHash": "0x370414f4f00cfc78eb672e0dc4ec880228b8104e55666da244a0ef74e3205643",
      "transactionIndex": "0x5",
      "blockHash": "0x0000000000000000000000000000000000000000000000000000000000000000",
      "blockNumber": "0x23a0c33",
      "gasUsed": "0x11af3",
      "effectiveGasPrice": "0x124546",
      "blobGasUsed": "0x79e0",
      "from": "0xca9cdd6714033a4d08e4be479c1077e5b35f3a4b",
      "to": "0xd225cbf92dc4a0a9512094b215b7b4df2870dee8",
      "contractAddress": null,
      "daFootprintGasScalar": "0x138",
      "l1BaseFeeScalar": "0x44d",
      "l1BlobBaseFee": "0x376390a",
      "l1BlobBaseFeeScalar": "0xa118b",
      "l1Fee": "0x146ebd301",
      "l1GasPrice": "0x37e94ee1",
      "l1GasUsed": "0x640"
    },
    {
      "status": "0x1",
      "cumulativeGasUsed": "0x731c1",
      "logs": [
        {
          "address": "0xd225cbf92dc4a0a9512094b215b7b4df2870dee8",
          "topics": [
            "0x749addf8eadeff63c43be59c27331be5c6d4fc9e82bbfbcf162321c9b35a95b4"
          ],
          "data": "0x000000000000000000000000ca9cdd6714033a4d08e4be479c1077e5b35f3a4b00000000000000000000000000000000000000000000000000000000000000020000000000000000000000000000000000000000000000000000000000000001",
          "blockHash": "0x0000000000000000000000000000000000000000000000000000000000000000",
          "blockNumber": "0x23a0c33",
          "blockTimestamp": "0x69877746",
          "transactionHash": "0xb09d822913c54a83df05d3ccf58b8af8f87d0a3ef3884c2ecfe58c06cfe0ed25",
          "transactionIndex": "0x6",
          "logIndex": "0x5",
          "removed": false
        }
      ],
      "logsBloom": "0x00000000000000000000000010000000000000000000000000000000000000008000000000000000000000000000000000000000000000000000000000000000000000000000000000000000000000000000000000000000000000000000000000000000000000000000000000000000000000000000000000000000000000000000000000000000000000008000000000000000000000000000000000000000000000000000000000000000000000000000000000000000000000000000000000000000000000000000000000000000000000000000000000000004000000000000000020000000000000000000000000000000000000100000000000000000",
      "type": "0x2",
      "transactionHash": "0xb09d822913c54a83df05d3ccf58b8af8f87d0a3ef3884c2ecfe58c06cfe0ed25",
      "transactionIndex": "0x6",
      "blockHash": "0x0000000000000000000000000000000000000000000000000000000000000000",
      "blockNumber": "0x23a0c33",
      "gasUsed": "0x11af3",
      "effectiveGasPrice": "0x124546",
      "blobGasUsed": "0x79e0",
      "from": "0xca9cdd6714033a4d08e4be479c1077e5b35f3a4b",
      "to": "0xd225cbf92dc4a0a9512094b215b7b4df2870dee8",
      "contractAddress": null,
      "daFootprintGasScalar": "0x138",
      "l1BaseFeeScalar": "0x44d",
      "l1BlobBaseFee": "0x376390a",
      "l1BlobBaseFeeScalar": "0xa118b",
      "l1Fee": "0x146ebd301",
      "l1GasPrice": "0x37e94ee1",
      "l1GasUsed": "0x640"
    },
    {
      "status": "0x1",
      "cumulativeGasUsed": "0x84cb4",
      "logs": [
        {
          "address": "0xd225cbf92dc4a0a9512094b215b7b4df2870dee8",
          "topics": [
            "0x749addf8eadeff63c43be59c27331be5c6d4fc9e82bbfbcf162321c9b35a95b4"
          ],
          "data": "0x000000000000000000000000ca9cdd6714033a4d08e4be479c1077e5b35f3a4b00000000000000000000000000000000000000000000000000000000000000030000000000000000000000000000000000000000000000000000000000000001",
          "blockHash": "0x0000000000000000000000000000000000000000000000000000000000000000",
          "blockNumber": "0x23a0c33",
          "blockTimestamp": "0x69877746",
          "transactionHash": "0xbaaa7eb7ee06d0071b3055d2dc1ad4a70fce35b70b83b1a7387c70fc9816a175",
          "transactionIndex": "0x7",
          "logIndex": "0x6",
          "removed": false
        }
      ],
      "logsBloom": "0x00000000000000000000000010000000000000000000000000000000000000008000000000000000000000000000000000000000000000000000000000000000000000000000000000000000000000000000000000000000000000000000000000000000000000000000000000000000000000000000000000000000000000000000000000000000000000008000000000000000000000000000000000000000000000000000000000000000000000000000000000000000000000000000000000000000000000000000000000000000000000000000000000000004000000000000000020000000000000000000000000000000000000100000000000000000",
      "type": "0x2",
      "transactionHash": "0xbaaa7eb7ee06d0071b3055d2dc1ad4a70fce35b70b83b1a7387c70fc9816a175",
      "transactionIndex": "0x7",
      "blockHash": "0x0000000000000000000000000000000000000000000000000000000000000000",
      "blockNumber": "0x23a0c33",
      "gasUsed": "0x11af3",
      "effectiveGasPrice": "0x124546",
      "blobGasUsed": "0x79e0",
      "from": "0xca9cdd6714033a4d08e4be479c1077e5b35f3a4b",
      "to": "0xd225cbf92dc4a0a9512094b215b7b4df2870dee8",
      "contractAddress": null,
      "daFootprintGasScalar": "0x138",
      "l1BaseFeeScalar": "0x44d",
      "l1BlobBaseFee": "0x376390a",
      "l1BlobBaseFeeScalar": "0xa118b",
      "l1Fee": "0x146ebd301",
      "l1GasPrice": "0x37e94ee1",
      "l1GasUsed": "0x640"
    }
  ],
  "libraries": [],
  "pending": [],
  "returns": {},
  "timestamp": 1770485576787,
  "chain": 84532,
  "commit": "628102f"
}