{
  "transactions": [
    {
      "hash": null,
      "transactionType": "CALL",
      "contractName": null,
      "contractAddress": "0xd225cbf92dc4a0a9512094b215b7b4df2870dee8",
      "function": "initDao()",
      "arguments": [],
      "transaction": {
        "from": "0x03a375747f290979689647672ef4845f8f16d1f3",
        "to": "0xd225cbf92dc4a0a9512094b215b7b4df2870dee8",
        "gas": "0xf898",
        "value": "0x0",
        "input": "0x199ace8c",
        "nonce": "0x0",
        "chainId": "0x14a34"
      },
      "additionalContracts": [],
      "isFixedGasLimit": false
    },
    {
      "hash": null,
      "transactionType": "CALL",
      "contractName": null,
      "contractAddress": "0xd225cbf92dc4a0a9512094b215b7b4df2870dee8",
      "function": "setChairperson(address)",
      "arguments": [
        "0x03A375747F290979689647672EF4845f8f16d1F3"
      ],
      "transaction": {
        "from": "0x03a375747f290979689647672ef4845f8f16d1f3",
        "to": "0xd225cbf92dc4a0a9512094b215b7b4df2870dee8",
        "gas": "0x9680",
        "value": "0x0",
        "input": "0xc4868f8800000000000000000000000003a375747f290979689647672ef4845f8f16d1f3",
        "nonce": "0x1",
        "chainId": "0x14a34"
      },
      "additionalContracts": [],
      "isFixedGasLimit": false
    },
    {
      "hash": null,
      "transactionType": "CALL",
      "contractName": null,
      "contractAddress": "0xd225cbf92dc4a0a9512094b215b7b4df2870dee8",
      "function": "addBoardMember(address)",
      "arguments": [
        "0x03A375747F290979689647672EF4845f8f16d1F3"
      ],
      "transaction": {
        "from": "0x03a375747f290979689647672ef4845f8f16d1f3",
        "to": "0xd225cbf92dc4a0a9512094b215b7b4df2870dee8",
        "gas": "0x10db5",
        "value": "0x0",
        "input": "0x1eac03ae00000000000000000000000003a375747f290979689647672ef4845f8f16d1f3",
        "nonce": "0x2",
        "chainId": "0x14a34"
      },
      "additionalContracts": [],
      "isFixedGasLimit": false
    },
    {
      "hash": null,
      "transactionType": "CALL",
      "contractName": null,
      "contractAddress": "0xd225cbf92dc4a0a9512094b215b7b4df2870dee8",
      "function": "addBoardMember(address)",
      "arguments": [
        "0x1111111111111111111111111111111111111111"
      ],
      "transaction": {
        "from": "0x03a375747f290979689647672ef4845f8f16d1f3",
        "to": "0xd225cbf92dc4a0a9512094b215b7b4df2870dee8",
        "gas": "0x10db5",
        "value": "0x0",
        "input": "0x1eac03ae0000000000000000000000001111111111111111111111111111111111111111",
        "nonce": "0x3",
        "chainId": "0x14a34"
      },
      "additionalContracts": [],
      "isFixedGasLimit": false
    },
    {
      "hash": null,
      "transactionType": "CALL",
      "contractName": null,
      "contractAddress": "0xd225cbf92dc4a0a9512094b215b7b4df2870dee8",
      "function": "addBoardMember(address)",
      "arguments": [
        "0x2222222222222222222222222222222222222222"
      ],
      "transaction": {
        "from": "0x03a375747f290979689647672ef4845f8f16d1f3",
        "to": "0xd225cbf92dc4a0a9512094b215b7b4df2870dee8",
        "gas": "0x10db5",
        "value": "0x0",
        "input": "0x1eac03ae0000000000000000000000002222222222222222222222222222222222222222",
        "nonce": "0x4",
        "chainId": "0x14a34"
      },
      "additionalContracts": [],
      "isFixedGasLimit": false
    },
    {
      "hash": null,
      "transactionType": "CALL",
      "contractName": null,
      "contractAddress": "0xd225cbf92dc4a0a9512094b215b7b4df2870dee8",
      "function": "addBoardMember(address)",
      "arguments": [
        "0x3333333333333333333333333333333333333333"
      ],
      "transaction": {
        "from": "0x03a375747f290979689647672ef4845f8f16d1f3",
        "to": "0xd225cbf92dc4a0a9512094b215b7b4df2870dee8",
        "gas": "0x10db5",
        "value": "0x0",
        "input": "0x1eac03ae0000000000000000000000003333333333333333333333333333333333333333",
        "nonce": "0x5",
        "chainId": "0x14a34"
      },
      "additionalContracts": [],
      "isFixedGasLimit": false
    },
    {
      "hash": null,
      "transactionType": "CALL",
      "contractName": null,
      "contractAddress": "0xd225cbf92dc4a0a9512094b215b7b4df2870dee8",
      "function": "openSession(string)",
      "arguments": [
        "Ethereum Building @ Zonamerica Cali"
      ],
      "transaction": {
        "from": "0x03a375747f290979689647672ef4845f8f16d1f3",
        "to": "0xd225cbf92dc4a0a9512094b215b7b4df2870dee8",
        "gas": "0xaada",
        "value": "0x0",
        "input": "0xe910a91200000000000000000000000000000000000000000000000000000000000000200000000000000000000000000000000000000000000000000000000000000023457468657265756d204275696c64696e672040205a6f6e616d65726963612043616c690000000000000000000000000000000000000000000000000000000000",
        "nonce": "0x6",
        "chainId": "0x14a34"
      },
      "additionalContracts": [],
      "isFixedGasLimit": false
    },
    {
      "hash": null,
      "transactionType": "CALL",
      "contractName": null,
      "contractAddress": "0xd225cbf92dc4a0a9512094b215b7b4df2870dee8",
      "function": "createResolution(string)",
      "arguments": [
        "Is construction viable in Zonamerica?"
      ],
      "transaction": {
        "from": "0x03a375747f290979689647672ef4845f8f16d1f3",
        "to": "0xd225cbf92dc4a0a9512094b215b7b4df2870dee8",
        "gas": "0x29865",
        "value": "0x0",
        "input": "0x01d6871700000000000000000000000000000000000000000000000000000000000000200000000000000000000000000000000000000000000000000000000000000025497320636f6e737472756374696f6e20766961626c6520696e205a6f6e616d65726963613f000000000000000000000000000000000000000000000000000000",
        "nonce": "0x7",
        "chainId": "0x14a34"
      },
      "additionalContracts": [],
      "isFixedGasLimit": false
    },
    {
      "hash": null,
      "transactionType": "CALL",
      "contractName": null,
      "contractAddress": "0xd225cbf92dc4a0a9512094b215b7b4df2870dee8",
      "function": "createResolution(string)",
      "arguments": [
        "Is required land available?"
      ],
      "transaction": {
        "from": "0x03a375747f290979689647672ef4845f8f16d1f3",
        "to": "0xd225cbf92dc4a0a9512094b215b7b4df2870dee8",
        "gas": "0x1363e",
        "value": "0x0",
        "input": "0x01d687170000000000000000000000000000000000000000000000000000000000000020000000000000000000000000000000000000000000000000000000000000001b4973207265717569726564206c616e6420617661696c61626c653f0000000000",
        "nonce": "0x8",
        "chainId": "0x14a34"
      },
      "additionalContracts": [],
      "isFixedGasLimit": false
    },
    {
      "hash": null,
      "transactionType": "CALL",
      "contractName": null,
      "contractAddress": "0xd225cbf92dc4a0a9512094b215b7b4df2870dee8",
      "function": "createResolution(string)",
      "arguments": [
        "Does the building align with Zonamerica goals?"
      ],
      "transaction": {
        "from": "0x03a375747f290979689647672ef4845f8f16d1f3",
        "to": "0xd225cbf92dc4a0a9512094b215b7b4df2870dee8",
        "gas": "0x23752",
        "value": "0x0",
        "input": "0x01d687170000000000000000000000000000000000000000000000000000000000000020000000000000000000000000000000000000000000000000000000000000002e446f657320746865206275696c64696e6720616c69676e2077697468205a6f6e616d657269636120676f616c733f000000000000000000000000000000000000",
        "nonce": "0x9",
        "chainId": "0x14a34"
      },
      "additionalContracts": [],
      "isFixedGasLimit": false
    },
    {
      "hash": null,
      "transactionType": "CALL",
      "contractName": null,
      "contractAddress": "0xd225cbf92dc4a0a9512094b215b7b4df2870dee8",
      "function": "createResolution(string)",
      "arguments": [
        "Final approval for construction"
      ],
      "transaction": {
        "from": "0x03a375747f290979689647672ef4845f8f16d1f3",
        "to": "0xd225cbf92dc4a0a9512094b215b7b4df2870dee8",
        "gas": "0x13684",
        "value": "0x0",
        "input": "0x01d687170000000000000000000000000000000000000000000000000000000000000020000000000000000000000000000000000000000000000000000000000000001f46696e616c20617070726f76616c20666f7220636f6e737472756374696f6e00",
        "nonce": "0xa",
        "chainId": "0x14a34"
      },
      "additionalContracts": [],
      "isFixedGasLimit": false
    },
    {
      "hash": null,
      "transactionType": "CALL",
      "contractName": null,
      "contractAddress": "0xd225cbf92dc4a0a9512094b215b7b4df2870dee8",
      "function": "vote(uint256,bool)",
      "arguments": [
        "0",
        "true"
      ],
      "transaction": {
        "from": "0x03a375747f290979689647672ef4845f8f16d1f3",
        "to": "0xd225cbf92dc4a0a9512094b215b7b4df2870dee8",
        "gas": "0x186c1",
        "value": "0x0",
        "input": "0xc9d27afe00000000000000000000000000000000000000000000000000000000000000000000000000000000000000000000000000000000000000000000000000000001",
        "nonce": "0xb",
        "chainId": "0x14a34"
      },
      "additionalContracts": [],
      "isFixedGasLimit": false
    },
    {
      "hash": null,
      "transactionType": "CALL",
      "contractName": null,
      "contractAddress": "0xd225cbf92dc4a0a9512094b215b7b4df2870dee8",
      "function": "vote(uint256,bool)",
      "arguments": [
        "1",
        "true"
      ],
      "transaction": {
        "from": "0x03a375747f290979689647672ef4845f8f16d1f3",
        "to": "0xd225cbf92dc4a0a9512094b215b7b4df2870dee8",
        "gas": "0x19dcf",
        "value": "0x0",
        "input": "0xc9d27afe00000000000000000000000000000000000000000000000000000000000000010000000000000000000000000000000000000000000000000000000000000001",
        "nonce": "0xc",
        "chainId": "0x14a34"
      },
      "additionalContracts": [],
      "isFixedGasLimit": false
    },
    {
      "hash": null,
      "transactionType": "CALL",
      "contractName": null,
      "contractAddress": "0xd225cbf92dc4a0a9512094b215b7b4df2870dee8",
      "function": "vote(uint256,bool)",
      "arguments": [
        "2",
        "true"
      ],
      "transaction": {
        "from": "0x03a375747f290979689647672ef4845f8f16d1f3",
        "to": "0xd225cbf92dc4a0a9512094b215b7b4df2870dee8",
        "gas": "0x19dcf",
        "value": "0x0",
        "input": "0xc9d27afe00000000000000000000000000000000000000000000000000000000000000020000000000000000000000000000000000000000000000000000000000000001",
        "nonce": "0xd",
        "chainId": "0x14a34"
      },
      "additionalContracts": [],
      "isFixedGasLimit": false
    },
    {
      "hash": null,
      "transactionType": "CALL",
      "contractName": null,
      "contractAddress": "0xd225cbf92dc4a0a9512094b215b7b4df2870dee8",
      "function": "vote(uint256,bool)",
      "arguments": [
        "3",
        "true"
      ],
      "transaction": {
        "from": "0x03a375747f290979689647672ef4845f8f16d1f3",
        "to": "0xd225cbf92dc4a0a9512094b215b7b4df2870dee8",
        "gas": "0x19dcf",
        "value": "0x0",
        "input": "0xc9d27afe00000000000000000000000000000000000000000000000000000000000000030000000000000000000000000000000000000000000000000000000000000001",
        "nonce": "0xe",
        "chainId": "0x14a34"
      },
      "additionalContracts": [],
      "isFixedGasLimit": false
    }
  ],
  "receipts": [],
  "libraries": [],
  "pending": [],
  "returns": {},
  "timestamp": 1770481487269,
  "chain": 84532,
  "commit": "628102f"
}